{
  "contractName": "KycContract",
  "abi": [
    {
      "inputs": [],
      "name": "setKycCompleted",
      "outputs": [],
      "stateMutability": "nonpayable",
      "type": "function"
    },
    {
      "inputs": [],
      "name": "setKycRevoked",
      "outputs": [],
      "stateMutability": "nonpayable",
      "type": "function"
    },
    {
      "inputs": [
        {
          "internalType": "address",
          "name": "_addr",
          "type": "address"
        }
      ],
      "name": "kycCompleted",
      "outputs": [
        {
          "internalType": "bool",
          "name": "",
          "type": "bool"
        }
      ],
      "stateMutability": "view",
      "type": "function",
      "constant": true
    }
  ],
  "bytecode": "0x608060405234801561001057600080fd5b506101f1806100206000396000f3fe608060405234801561001057600080fd5b50600436106100415760003560e01c80636d6128991461004657806396fd1de514610050578063df235fe41461005a575b600080fd5b61004e6100b4565b005b61005861010d565b005b61009c6004803603602081101561007057600080fd5b81019080803573ffffffffffffffffffffffffffffffffffffffff169060200190929190505050610166565b60405180821515815260200191505060405180910390f35b60016000803373ffffffffffffffffffffffffffffffffffffffff1673ffffffffffffffffffffffffffffffffffffffff16815260200190815260200160002060006101000a81548160ff021916908315150217905550565b60008060003373ffffffffffffffffffffffffffffffffffffffff1673ffffffffffffffffffffffffffffffffffffffff16815260200190815260200160002060006101000a81548160ff021916908315150217905550565b60008060008373ffffffffffffffffffffffffffffffffffffffff1673ffffffffffffffffffffffffffffffffffffffff16815260200190815260200160002060009054906101000a900460ff16905091905056fea2646970667358221220c2a91b304d6829af74a09e26b33edb7e6ab4deec0bc9c474f124e5578554f0a764736f6c634300060c0033",
  "immutableReferences": {},
  "source": "pragma solidity ^0.6.2;\n\ncontract KycContract {\n    mapping(address => bool) allowed;\n\n    function setKycCompleted() public {\n        allowed[msg.sender] = true;\n    }\n\n    function setKycRevoked() public {\n        allowed[msg.sender] = false;\n    }\n\n    function kycCompleted(address _addr) public view returns(bool) {\n        return allowed[_addr];\n    }\n}",
  "sourcePath": "/Users/stefanweber/solidity-token-sale/contracts/KycContract.sol",
  "compiler": {
    "name": "solc",
    "version": "0.6.12+commit.27d51765.Emscripten.clang"
  },
  "schemaVersion": "3.4.3",
  "updatedAt": "2021-11-10T18:04:18.765Z",
  "networkType": "ethereum",
  "devdoc": {
    "kind": "dev",
    "methods": {},
    "version": 1
  },
  "userdoc": {
    "kind": "user",
    "methods": {},
    "version": 1
  }
}